:100000000C9464000C948C000C948C000C948C0068
:100010000C948C000C948C000C948C000C948C0030
:100020000C948C000C948C000C948C000C948C0020
:100030000C948C000C948C000C948C000C948C0010
:100040000C9420060C948C000C94EE060C946A061A
:100050000C94B6060C948C000C948C000C948C00C0
:100060000C948C000C948C0052075F0776079E0757
:10007000F2073E08640800000000240027002A0060
:1000800000000000250028002B00040202020202EA
:1000900004040204040404040303030303034002EE
:1000A0000408102001800102040810200102040845
:1000B00010200103040600000000000000070002F9
:1000C000000000000000620911241FBECFEFD8E03D
:1000D000DEBFCDBF23E0A2E3B1E001C01D92A53891
:1000E000B207E1F711E0A0E0B1E0ECEEF3E102C00D
:1000F00005900D92A233B107D9F710E0C4E6D0E025
:1001000004C02197FE010E94CC09C336D107C9F76C
:100110000E94DA080C94F4090C940000E091560354
:10012000F09157030190F081E02D682F86E593E070
:100130000994EFEBF0E02491EBEAF0E09491E7E929
:10014000F0E0E491EE2309F43BC0222339F123309F
:1001500091F038F42130A9F0223001F524B52F7D3B
:1001600012C0263091F02730A1F02430B9F420914C
:1001700080002F7D03C0209180002F772093800086
:100180000DC024B52F7724BD09C02091B0002F7772
:1001900003C02091B0002F7D2093B000F0E0EE0F5F
:1001A000FF1FE058FF4FA591B4912FB7F894EC9141
:1001B000811103C090959E2301C09E2B9C932FBF5D
:1001C00008953FB7F8948091080390910903A09196
:1001D0000A03B0910B0326B5A89B05C02F3F19F069
:1001E0000196A11DB11D3FBFBA2FA92F982F8827B7
:1001F000820F911DA11DB11DBC01CD0143E0660F11
:10020000771F881F991F4A95D1F70895CF92DF92E3
:10021000EF92FF92CF93DF936B017C010E94E1008C
:10022000EB01C114D104E104F10479F00E94E10072
:100230006C1B7D0B683E7340A0F381E0C81AD108A7
:10024000E108F108C851DC4FECCFDF91CF91FF906E
:10025000EF90DF90CF90089508950895CF92DF92A8
:10026000EF92FF920F931F93CF93DF936C017B016B
:10027000C0E0D0E000E010E0F70184819581C8176C
:10028000D907C0F4D601ED91FC910190F081E02DE9
:10029000D7012D913C912115310529F0D901AC0FE1
:1002A000BD1F6C9101C060E0C6010995080F191FC0
:1002B0002196E2CFC801DF91CF911F910F91FF905E
:1002C000EF90DF90CF900895EF92FF920F931F93DE
:1002D000CF93DF937C01FB0100E010E06491EF011C
:1002E0002196662361F0D701ED91FC910190F08198
:1002F000E02DC7010995080F191FFE01EFCFC801B6
:10030000DF91CF911F910F91FF90EF900895CF92C1
:10031000DF92EF92FF920F931F93CF93DF936C01C5
:10032000EB017B01E40EF51E00E010E0CE15DF05C9
:1003300061F06991D601ED91FC910190F081E02D81
:10034000C6010995080F191FF1CFC801DF91CF91A0
:100350001F910F91FF90EF90DF90CF900895CF9372
:10036000DF93FC01462FC685D7859E012B5B3F4F4F
:10037000D9018D919C91019665E470E00E94B809C5
:10038000DE01A95BBF4F6D917C911197861797078E
:10039000D1F3D9012D913C91DE01A20FB31F4C93F3
:1003A000A685B785AB5BBF4F11969C938E93A689AC
:1003B000B7892C9181E090E0078C02C0880F991FCB
:1003C0000A94E2F7822B8C9381E081A30488F5895B
:1003D000E02D80818064808381E090E0DF91CF9187
:1003E0000895FC0181A1882329F0A489B5898C9105
:1003F00086FFFBCF11A20895FC01A485B585FD0100
:10040000EB5BFF4F208131813296808191812817EB
:10041000390789F080819181A80FB91F2C918081C3
:100420009181019665E470E00E94B8099183808310
:10043000822F90E008958FEF9FEF0895DC011C96C6
:10044000ED91FC911D97DF01AB5BBF4F2D913C916E
:10045000119712968D919C9111972817390739F0B1
:100460008D919C91E80FF91F808190E008958FEFA6
:100470009FEF0895FC0124853585F901EB5BFF4F63
:10048000808191813296208131818B5B9F4F821BCD
:10049000930B65E470E00E94B8090895CF93DF9351
:1004A000FC0186859785EC01CB5BDF4FDC01A95B06
:1004B000BF4F288139818D919C9111972817390759
:1004C000C1F7A689B7893C9181E090E0AC01048C2A
:1004D00002C0440F551F0A94E2F7242F20952323CE
:1004E0002C93A689B7893C91AC01058C02C0440FBE
:1004F000551F0A94E2F7242F209523232C93A689D5
:10050000B7893C91AC01068C02C0440F551F0A9478
:10051000E2F7242F209523232C93A689B7892C91C9
:10052000078C02C0880F991F0A94E2F780958223F6
:100530008C9384859585FC01E95BFF4F2081318197
:10054000329731832083DF91CF910895CF92DF924C
:10055000EF92FF921F93CF93DF93EC016A017B012F
:10056000122FEC89FD8981E090E008A002C0880F7D
:10057000991F0A94E2F7808360E874E88EE190E0C6
:10058000A70196010E94D209DA01C9010197A109C8
:10059000B109B695A79597958795AC01411580E16E
:1005A000580708F043C0E889F9895083EA89FB8934
:1005B0004083E88DF98D1083EE89FF89408181E0C9
:1005C00090E09C010C8C02C0220F331F0A94E2F7CA
:1005D000242B2083EE89FF8940819C010D8C02C071
:1005E000220F331F0A94E2F7242B2083EE89FF8920
:1005F00040819C010E8C02C0220F331F0A94E2F747
:10060000242B2083EE89FF8920810F8C02C0880F64
:10061000991F0A94E2F7809582238083DF91CF911E
:100620001F91FF90EF90DF90CF900895EC89FD89A6
:10063000108260E472E48FE090E0A70196010E94CE
:10064000D209BA01A9014150510961097109769590
:10065000679557954795A7CFCF92DF92EF92FF927C
:100660000F931F93CF93DF93EC016A017B01EC8919
:10067000FD8981E090E008A002C0880F991F0A94CC
:10068000E2F7808360E874E88EE190E0A7019601CC
:100690000E94D20989019A010150110921093109E9
:1006A000369527951795079598010115104108F083
:1006B00042C0E889F9893083EA89FB89208319A23D
:1006C000EE89FF89408181E090E09C010C8C02C0A2
:1006D000220F331F0A94E2F7242B2083EE89FF892F
:1006E00040819C010D8C02C0220F331F0A94E2F757
:1006F000242B2083EE89FF8940819C010E8C02C04F
:10070000220F331F0A94E2F7242B2083EE89FF89FE
:1007100020810F8C02C0880F991F0A94E2F7809500
:1007200082238083DF91CF911F910F91FF90EF90F3
:10073000DF90CF900895EC89FD89108260E472E427
:100740008FE090E0A70196010E94D209DA01C90169
:100750000197A109B109B695A795979587959C0131
:10076000A8CFDC01ED91FC91DB0114964D915C91D9
:1007700015976D917C910280F381E02D09941F9370
:10078000CF93DF9323E8260F233040F4162FEC019C
:100790006DE70E94AF0160E26127CE01DF91CF914A
:1007A0001F910C94AF01209100012223E1F3FC0181
:1007B00011A20895CF92DF92EF92FF92DC01CB015C
:1007C00080959095A095B095FA01240F351FE217FA
:1007D000F307E9F04191842748E050E06C017D0186
:1007E000F694E794D794C79480FF0BC0D701C60155
:1007F00060E2862763E8962768EBA6276DEEB627AA
:1008000002C0D701C6014150510941F7E0CFBC01F8
:10081000CD016095709580959095FF90EF90DF9059
:10082000CF9008954F925F926F927F928F929F9296
:10083000AF92BF92CF92DF92EF92FF920F931F93EE
:10084000CF93DF9300D000D01F92CDB7DEB78C01DD
:100850006B017A018091550381113CC040E056E95B
:1008600060E070E086E593E00E942C03EBEAF0E0A4
:100870004491E7E9F0E0A491AA23A9F0B0E0AA0F1F
:10088000BB1FFD01EA58FF4F85919491FD01E0588F
:10089000FF4F259134912FB7F894DC013C91E32F61
:1008A000E42BEC932FBF80E00E949900209151032C
:1008B00030915203809153039091540328173907C4
:1008C00031F481E08093000180E00E94990081E092
:1008D00080935503B1E4EB16F10408F07EC010924A
:1008E000000181E00E949900209151033091520350
:1008F00080915303909154032817390759F4F80154
:1009000062A173A184A195A161157105810591056D
:1009100009F066C06EE7C8010E94AF0182E08E0D4B
:1009200089831A821B8223E030E0AE014F5F5F4F64
:1009300060E070E0CB010E94DA032B013C014E0124
:10094000F4E08F0E911CCE0101965C01D5016D91F2
:100950005D01C8010E94BF03A814B904B9F797014B
:10096000A601C301B2010E94DA03A62E982E892E99
:10097000B12C2B2D30E02E153F0558F4F601E20F77
:10098000F31F6081C8017D830E94BF03B3947D8102
:10099000F0CF89829A827B83AC82FE0131966F010F
:1009A00084E0B82EBE0ED6016D916D01C8010E9483
:1009B000BF03BC10F8CF6FE7C8010E94AF01F80178
:1009C00066A177A180A591A56115710581059105A5
:1009D00011F00E940601C70106C08FEF9FEF03C010
:1009E0000E94060197CF0F900F900F900F900F90DD
:1009F000DF91CF911F910F91FF90EF90DF90CF90FB
:100A0000BF90AF909F908F907F906F905F904F902E
:100A10000895CF92DF92EF92FF920F931F93CF939F
:100A2000DF93CDB7DEB7C054D1090FB6F894DEBF5F
:100A30000FBECDBF6115710569F16C017B0100E04E
:100A400010E0F70124912223E1F0C8010196A1E012
:100A5000B0E0AC0FBD1FA00FB11F2C9380349105E7
:100A600029F02FEFE21AF20A8C01EBCF40E450E0BC
:100A7000BE016F5F7F4FC6010E94120480E090E0CC
:100A8000F0CFA801BE016F5F7F4FC6010E94120424
:100A9000C80102C080E090E0C05CDF4F0FB6F89460
:100AA000DEBF0FBECDBFDF91CF911F910F91FF90A1
:100AB000EF90DF90CF900895CF92DF92EF92FF9268
:100AC0000F931F93CF93DF936C017B01EA016115B4
:100AD000710571F1209761F141345105F8F020E082
:100AE00030E00FE310E0A801421B530BB701620F87
:100AF000731FC6010E9412040C171D07E1F0A80124
:100B0000405C5F4FC417D50708F4AE019801C417C5
:100B1000D50710F08A01E7CFCE010EC0DF91CF914B
:100B20001F910F91FF90EF90DF90CF900C941204E3
:100B300080E090E001C0C801DF91CF911F910F913B
:100B4000FF90EF90DF90CF900895CF93DF931F92A7
:100B5000CDB7DEB7698341E050E0BE016F5F7F4FE4
:100B60000E94120481E090E00F90DF91CF910895F0
:100B7000089508950895BC01009791F0FC0101903B
:100B80000020E9F73197AF01481B590BE09156035C
:100B9000F09157030280F381E02D86E593E00994FC
:100BA00080E090E008958F929F92AF92BF92EF9273
:100BB000FF920F931F93CF93DF93CDB7DEB7A1972B
:100BC0000FB6F894DEBF0FBECDBF162F042F19A2AB
:100BD000423008F40AE07E0121E2E20EF11C802E90
:100BE000912CA12CB12C612FA50194010E94D20956
:100BF000029F1019112481E0E81AF1081A3014F448
:100C0000105D01C0195CF7011083122F732FCA0108
:100C1000232B242B252B39F7C7010E94BB05A19656
:100C20000FB6F894DEBF0FBECDBFDF91CF911F91FD
:100C30000F91FF90EF90BF90AF909F908F9008958D
:100C40001F920F920FB60F9211242F933F938F9301
:100C50009F93AF93BF938091040390910503A0915C
:100C60000603B09107033091030326E0230F2D37CD
:100C700020F40296A11DB11D05C029E8230F03969B
:100C8000A11DB11D209303038093040390930503DA
:100C9000A0930603B0930703809108039091090382
:100CA000A0910A03B0910B030196A11DB11D809381
:100CB000080390930903A0930A03B0930B03BF9119
:100CC000AF919F918F913F912F910F900FBE0F90F9
:100CD0001F9018951F920F920FB60F9211242F9309
:100CE0003F935F936F937F938F939F93AF93BF9344
:100CF000EF93FF932091510330915203809153035E
:100D0000909154032817390759F48091C1008F7DC1
:100D10008093C1008091C10080648093C10016C09F
:100D2000E0915303F0915403E45FFC4F20818091E4
:100D3000530390915403019665E470E00E94B80952
:100D400090935403809353032093C600FF91EF9137
:100D5000BF91AF919F918F917F916F915F913F91E3
:100D60002F910F900FBE0F901F9018951F920F920A
:100D70000FB60F9211242F933F934F935F936F936E
:100D80007F938F939F93AF93BF93EF93FF932091A4
:100D900051033091520380915303909154032817CB
:100DA000390759F480E00E9499008091C1008F7B3F
:100DB0008093C10081E080930001FF91EF91BF918A
:100DC000AF919F918F917F916F915F914F913F91E3
:100DD0002F910F900FBE0F901F9018951F920F929A
:100DE0000FB60F921124CF92DF92EF92FF920F93E2
:100DF0001F932F933F934F935F936F937F938F93A3
:100E00009F93AF93BF93EF93FF93CF93DF931F9283
:100E1000CDB7DEB78091C00082FD0CC08091C600C6
:100E20008983E0916C02F0916D0220916B02309702
:100E300021F40FC08091C600A3C1222321F090E2CB
:100E40008927898306C08D3731F481E080936B0256
:100E500097C121111DC089818E3719F4309749F44B
:100E600017C08F3721F4E630F10519F411C08D3722
:100E700079F410926B0210926A0210926902109239
:100E8000680210926702109266021092650214C006
:100E900010926B02E730F10508F072C1EC5CFF4F75
:100EA0000C94CC0989818E3709F06AC181E090E009
:100EB00090936D0280936C0210926E0261C18981E1
:100EC0008093680222E030E030936D0220936C0240
:100ED00090E0909364028093630221E030E0AE01E1
:100EE0004F5F5F4F60E070E0CB011DC089811092C1
:100EF000690280936A02809168028150809368023F
:100F000083E090E090936D0280936C0260915F02A9
:100F100070916002809161029091620221E030E064
:100F2000AE014F5F5F4F0E94DA0360935F027093E0
:100F30006002809361029093620222C129818091B4
:100F4000690290916A02822B90936A0280936902EF
:100F500020916802215020936802813035E5930783
:100F600019F486E192E02BC08130A0E59A0719F4CC
:100F70008DEC91E024C08230B0E59B0719F484E841
:100F800091E01DC0833030E6930791F48BE391E04C
:100F9000909366028093650281E080933A011092FB
:100FA00083011092820110928101109280010BC086
:100FB000892B19F08FE692E002C088EB92E09093C3
:100FC000660280936502222319F084E090E09ACFB4
:100FD00085E090E090936D0280936C0284E08093B2
:100FE000680294CF20916502309166022115310587
:100FF000B9F11981F901EB5BFF4F80819181019675
:1010000065E470E00E94B809D901A95BBF4F4D911A
:101010005C918417950741F040815181D901A40F5B
:10102000B51F1C93918380838091680281508093C7
:10103000680260915F0270916002809161029091FC
:10104000620221E030E0AE014F5F5F4F0E94DA03A1
:1010500060935F02709360028093610290936202DA
:101060008091680281118CC085E090E090936D02C0
:1010700080936C0284E08093680282C08091680251
:10108000815080936802E3E0F0E0E81BF109EA5C3C
:10109000FE4F99819083811173C080915F0290917E
:1010A00060022091610230916202309332012093FC
:1010B0003301909334018093350186E090E0909362
:1010C0006D0280936C025CC08091690290916A020B
:1010D0008130A5E59A0761F5E0916502F09166021D
:1010E00023E030E08F010B5B1F4F85E4E82EF12CED
:1010F0006F01B7E4CB0ED11CD8018D919C91019664
:10110000B7010E94B809D6014D915C9184179507EB
:1011100059F0D8014D915C91DA01AE0FBF1F1C92BE
:10112000D80111969C938E932150310929F705C05F
:101130008330904611F410923A01E2E3F1E0A6E325
:10114000B1E080E021919D91291301C08F5F21E0E2
:10115000E633F207B9F7843019F481E080936E0228
:1011600010926D0210926C0210926A021092690243
:101170001092680210926702109266021092650245
:101180000F90DF91CF91FF91EF91BF91AF919F9120
:101190008F917F916F915F914F913F912F911F910F
:1011A0000F91FF90EF90DF90CF900F900FBE0F90B8
:1011B0001F901895789484B5826084BD84B5816051
:1011C00084BD85B5826085BD85B5816085BD809112
:1011D0006E00816080936E0010928100809181008A
:1011E0008260809381008091810081608093810082
:1011F000809180008160809380008091B100846044
:101200008093B1008091B00081608093B0008091A4
:101210007A00846080937A0080917A008260809363
:101220007A0080917A00816080937A0080917A00C0
:10123000806880937A001092C1008CB58F7B8CBD42
:10124000C4E4C0937C0080917A00806480937A002B
:1012500080917A0086FDFCCF809178002091790002
:1012600090E0922B90930203809301038FE191E031
:101270000E94BB05C0900103D09002030D2C000C0E
:10128000EE08FF08F7FE0CC08DE20E948E00662774
:101290007727CB016C197D098E099F094AE003C0AD
:1012A0004AE0C701B6010E94D3058DE00E948E007E
:1012B0008AE00E948E0064E670E080E090E00E9488
:1012C0000601BFCFE6E5F3E01382128288EE93E0D9
:1012D000A0E0B0E084839583A683B78388EB92E097
:1012E000958784878CE093E09787868785EC90E0EC
:1012F000918B808B84EC90E0938B828B80EC90E0E0
:10130000958B848B81EC90E0978B868B82EC90E0C0
:10131000918F808F86EC90E0938F828F84E0848F12
:1013200083E0858F87E0868F85E0878F81E080A3CB
:1013300029E031E03183208386A78FE692E093A7EE
:1013400082A78EE692E095A784A710926E0287E0AE
:1013500090E0A0E0B0E082A393A3A4A3B5A38DE0A6
:1013600090E0A0E0B0E086A397A3A0A7B1A708955E
:10137000AA1BBB1B51E107C0AA1FBB1FA617B707BB
:1013800010F0A61BB70B881F991F5A95A9F78095D7
:101390009095BC01CD010895EE0FFF1F0590F491CB
:1013A000E02D0994A1E21A2EAA1BBB1BFD010DC062
:1013B000AA1FBB1FEE1FFF1FA217B307E407F50705
:1013C00020F0A21BB30BE40BF50B661F771F881FE1
:1013D000991F1A9469F760957095809590959B0177
:0C13E000AC01BD01CF010895F894FFCFCF
:1013EC00010100000000000000A5055C050905B125
:1013FC00033A02FC011E02D303BA05B905B8054134
:10140C006E616C6F672072656164696E67203D2048
:02141C000000CE
:00000001FF
